S01600002E2F44656275672F5254532D4C61622E73313936
S3152000000000BFDFF814D000F098FF00F0D7FC00F016
S31520000010A4BFFEE700BF000000C0012080B485B069
S3152000002000AF786039600023FB6002E0FB68013393
S31520000030FB607B681A69FB689A42F7DC00BF1437BD
S31520000040BD465DF8047B704780B483B000AF78600E
S3152000005039600D497B68DB68DAB27B681B69DBB2E5
S3152000006012FB03F3DBB20B707B681B69002B0CBF02
S3152000007001230023DBB21A467B681A6100BF0C37C6
S31520000080BD465DF8047B70471C74004080B59CB06B
S3152000009000AF786039607B680022DA607B68DA68B6
S315200000A007F10C030749184606F0F2FE07F10C0388
S315200000B01A460549054801F01DFC00BF7037BD46AC
S315200000C080BD00BF947800202F0B0020BC7B002031
S315200000D080B59CB000AF786039607B680522DA6015
S315200000E07B68DA6807F10C030749184606F0D0FE4C
S315200000F007F10C031A460549054801F0FBFB00BF32
S315200001007037BD4680BD00BF947800202F0B00209D
S31520000110BC7B002080B59CB000AF786039607B68DE
S31520000120DB68132B03DD7B681422DA6004E07B682E
S31520000130DB685A1C7B68DA607B68DA6807F10C0397
S315200001400749184606F0A4FE07F10C031A4605498E
S31520000150054801F0CFFB00BF7037BD4680BD00BF0C
S31520000160947800202F0B0020BC7B002080B59CB00B
S3152000017000AF786039607B68DB68002B03DC7B6826
S315200001800022DA6004E07B68DB685A1E7B68DA604E
S315200001907B68DA6807F10C030749184606F078FEF3
S315200001A007F10C031A460549054801F0A3FB00BFD9
S315200001B07037BD4680BD00BF947800202F0B0020ED
S315200001C0BC7B002080B59CB000AF786039607B682E
S315200001D05B69B3F5FA7F04D17B6840F28A225A61C3
S315200001E014E07B685B6940F28A22934204D17B68E3
S315200001F040F2A3325A6109E07B685B6940F2A33280
S31520000200934203D17B684FF4FA725A617B685A692C
S3152000021007F10C030749184606F03AFE07F10C03CE
S315200002201A460549054801F065FB00BF7037BD46F3
S3152000023080BD00BFA47800202F0B0020BC7B0020AF
S3152000024080B59CB000AF786039607B681B6903F588
S31520000250FA727B681A617B681A6907F10C030749F1
S31520000260184606F015FE07F10C031A460449054800
S3152000027001F040FB00BF7037BD4680BDB07800203E
S315200002802F0B0020BC7B002080B59CB000AF78608F
S3152000029039607B681B69002B03DC7B6800221A61AE
S315200002A005E07B681B69A3F5FA727B681A617B6897
S315200002B01A6907F10C030749184606F0E9FD07F10C
S315200002C00C031A460449054801F014FB00BF703799
S315200002D0BD4680BDB07800202F0B0020BC7B0020BF
S315200002E080B59CB000AF786039607B689B68002B36
S315200002F003D07B6800229A6002E07B683A689A60A5
S315200003007B689A6807F10C030749184606F0C0FD7A
S3152000031007F10C031A460549054801F0EBFA00BF20
S315200003207037BD4680BD00BFBC7800202F0B002053
S31520000330BC7B002080B586B000AF7860396007F1BD
S315200003400C031A460A490B4801F0D4FA0A4B1A46FE
S315200003500A490B4801F0CEFA07F10C0303331A467B
S315200003600649074801F0C6FA00BF1837BD4680BDCA
S3152000037031210020DC7F0020CC7800202F0B0020AC
S31520000380BC7B002080B584B002AF786039607B6882
S315200003909B68002B06D00E4B1A460E490E4801F0DC
S315200003A0A9FA10E00D4B1A460A490B4801F0A2FAA9
S315200003B0002300930A4B0B4A0021002001F0F6F996
S315200003C07B6801229A6000BF0837BD4680BD00BF0A
S315200003D0E07800202F0B0020BC7B0020F87800203E
S315200003E049000020907B002080B584B002AF786061
S315200003F039607B681B69002B06D00E4B1A460E49C6
S315200004000E4801F077FA10E00D4B1A460A490B48C0
S3152000041001F070FA002300930A4B0B4A00210020BA
S3152000042001F0C4F97B6801221A6100BF0837BD4676
S3152000043080BD00BFE07800202F0B0020BC7B002071
S31520000440147900201D000020A87B002080B584B0F0
S3152000045002AF786039600D4B1A460D490D4801F000
S3152000046049FA002300930C4B0C4A0021002001F08E
S315200004709DF9002300930A4B084A0021002001F031
S3152000048095F900BF0837BD4680BD00BF2C790020F6
S315200004902F0B0020BC7B00208503002074810020C8
S315200004A0E9030020B0B5A2B002AF0023FB6700230A
S315200004B0BB6700237B672DE001F03AFBF86600233B
S315200004C03B670FE03A4B1B78002B03D0384B0022BA
S315200004D01A7004E0364B374AD268D2B21A703B6F94
S315200004E001333B673B6FB3F57A7FEBDB01F020FBF3
S315200004F0B866BA6EFB6ED31A7B667A6EBB6F9A426B
S3152000050001DD7B6EBB67FA6F7B6E1344FB677B6FE7
S3152000051001337B677B6FB3F5FA7FCDDBFB6F7B66A1
S31520000520FB6F254A82FB03125211DB17D31AFB6796
S31520000530BB6F224A82FB03125113DA178A1A20490B
S3152000054001FB02F29A1A13469B0013445B001C46D9
S315200005507B6E1A4A82FB03125113DA178A1A18493C
S3152000056001FB02F29A1A13469B0013445B001D46B8
S31520000570FB6F124A82FB03125113DA178A1A1049AB
S3152000058001FB02F29A1A13469B0013445B0038467D
S3152000059000932B4622460B4906F07AFC3B461A4628
S315200005A009490A4801F0A6F900BF8037BD46B0BD0B
S315200005B01C740040907B0020D34D621089B5F8143E
S315200005C0A0860100347900202F0B0020BC7B002060
S315200005D0B0B5A2B002AF0023FB670023BB670023A0
S315200005E07B6721E001F0A4FAF86600233B6702E06E
S315200005F03B6F01333B67334B1A693B6F9A42F7DCFB
S3152000060001F096FAB866BA6EFB6ED31A7B667A6EDE
S31520000610BB6F9A4201DD7B6EBB67FA6F7B6E13441C
S31520000620FB677B6F01337B677B6FB3F5FA7FD9DB83
S31520000630FB6F7B66FB6F244A82FB03125211DB178A
S31520000640D31AFB67BB6F214A82FB03125113DA17B9
S315200006508A1A1F4901FB02F29A1A13469B00134479
S315200006605B001C467B6E194A82FB03125113DA1774
S315200006708A1A174901FB02F29A1A13469B00134461
S315200006805B001D46FB6F114A82FB03125113DA17DA
S315200006908A1A0F4901FB02F29A1A13469B00134449
S315200006A05B00384600932B4622460A4906F0F0FBAB
S315200006B03B461A460849094801F01CF900BF803715
S315200006C0BD46B0BDA87B0020D34D621089B5F81475
S315200006D0A0860100347900202F0B0020BC7B00204F
S315200006E080B588B000AF786039607B68DB68002B06
S315200006F006D03A4B1A463A493A4801F0FBF868E0E8
S31520000700394B1A463649374801F0F4F8374B01225F
S315200007101A603B68002B0ED17B680122DA60344BCD
S315200007201A462F492F4801F0E5F8FFF7BBFE7B68F4
S315200007300022DA604AE03B68012B1DD17B6801224A
S31520000740DA602C4B1A462649264801F0D3F82A4B64
S315200007501A6907F10C032949184606F099FB07F197
S315200007600C031A461E491F4801F0C4F8FFF730FF54
S315200007707B680022DA6029E03B68022B26D11E4BDB
S3152000078043F2BC421A617B680122DA60194B1A4691
S315200007901349144801F0AEF8174B1A6907F10C03F8
S315200007A01649184606F074FB07F10C031A460C4945
S315200007B00C4801F09FF8FFF70BFF114B1A4608492A
S315200007C0084801F097F87B680022DA60074B002280
S315200007D01A6000BF2037BD4680BD00BF5C7900206F
S315200007E02F0B0020BC7B0020807900207081002008
S315200007F094790020B0790020A87B0020D0790020B1
S31520000800D479002080B584B002AF78603960474B38
S315200008101A464749474801F06DF83A68464945481F
S3152000082001F068F8454B1A464149424801F062F802
S315200008303B686D2B05D100224149424801F05AF808
S3152000084070E03B686A2B05D100223F493D4801F004
S3152000085051F867E03B686B2B05D100223B493948AC
S3152000086001F048F85EE03B68752B05D10022384937
S31520000870344801F03FF855E03B686C2B05D1002247
S315200008803449354801F036F84CE03B68722B05D1E7
S3152000089000223249304801F02DF843E03B686E2BA8
S315200008A005D100222E49274801F024F83AE03B687A
S315200008B0642B11D1642300932A4B224A0021002065
S315200008C000F074FF40F214530093264B224A002175
S315200008D0002000F06BFF25E03B68612B04D100214E
S315200008E02148FFF7B3FD1DE03B68622B04D10021B0
S315200008F01D48FFF7F5FE15E03B68632B04D1012167
S315200009001948FFF7EDFE0DE03B68652B04D1022167
S315200009101548FFF7E5FE05E0144B1A46044905483D
S3152000092000F0E8FF00BF0837BD4680BDE87900200B
S315200009302F0B0020BC7B0020830B0020F0790020A9
S315200009408D000020907B0020150100206D010020E5
S31520000950D100002041020020A87B0020890200202F
S31520000960C5010020E102002074810020F4790020D6
S3152000097080B582B000AF78603960002209490A4804
S3152000098000F0B8FF00220949094800F0B3FF094BDF
S315200009901A460949064800F0ADFF00BF0837BD4694
S315200009A080BD00BF651F0020DC7F0020850A002057
S315200009B0BC7B00200C7A00202F0B002080B500AFD6
S315200009C000220849084801F089F901220749084808
S315200009D001F084F900220749074801F0D3F90023E2
S315200009E0184680BDB90B0020BC7B0020A91F002023
S315200009F0DC7F0020710900207481002080B483B040
S31520000A0000AF0346FB71094997F907305B09FA796C
S31520000A1002F01F02012000FA02F241F8232000BF53
S31520000A200C37BD465DF8047B704700BF00E100E04F
S31520000A3080B483B000AF03463960FB7197F9073065
S31520000A40002B0BDA0D49FB7903F00F03043B3A68C0
S31520000A50D2B21201D2B20B441A7609E0084997F9AC
S31520000A6007303A68D2B21201D2B20B4483F800237F
S31520000A7000BF0C37BD465DF8047B704700ED00E0F3
S31520000A8000E100E080B582B000AF786039607B6815
S31520000A9000229A617B689A697B685A617B685A69E9
S31520000AA07B68DA6102212520FFF7C2FF2520FFF7A8
S31520000AB0A5FF094804F017FF012240F225510648F8
S31520000AC005F0A6F8012240F22771034805F0A0F8A8
S31520000AD000BF0837BD4680BD0010014080B483B0FA
S31520000AE000AF78600B46FB707B68DB69B3F5806FDF
S31520000AF017DA7B685B697A681344FA7883F82020D2
S31520000B007B685B6901335A42C3F30903C2F30902C6
S31520000B1058BF53427A6853617B68DB695A1C7B68ED
S31520000B20DA6100BF0C37BD465DF8047B704780B59F
S31520000B3082B000AF786039607B68DB69002B18D102
S31520000B407B689B68012240F22771184605F060F801
S31520000B500FE03B681B780A2B03D10D217868FFF73D
S31520000B60BDFF3B685A1C3A601B7819467868FFF728
S31520000B70B5FF3B681B78002BEBD100BF0837BD467D
S31520000B8080BD80B582B000AF786039607B68DB6954
S31520000B90002B07D17B689B68012240F227711846FB
S31520000BA005F036F83B68DBB219467868FFF796FF02
S31520000BB000BF0837BD4680BD80B586B002AF7860DD
S31520000BC039607B689B682021184605F069F8034642
S31520000BD0012B19D17B689B68184604F084FE0346D6
S31520000BE0FB607B68DB68002B4DD07B68DA687B680E
S31520000BF01969FB6800930B460021002000F0D6FD02
S31520000C00234B01221A603EE07B689B6880211846B0
S31520000C1005F046F80346012B35D17B68DB69002BAE
S31520000C2029DD7B6898687B689B697A68134493F80A
S31520000C3020309BB2194604F044FE7B689B69013341
S31520000C405A42C3F30903C2F3090258BF53427A68D2
S31520000C5093617B68DB695A1E7B68DA617B68DB6996
S31520000C60002B10D17B689B68002240F22771184622
S31520000C7004F0CEFF07E07B689B68002240F22771D4
S31520000C80184604F0C5FF002318461037BD4680BD20
S31520000C908881002080B400AF00BFBD465DF8047B8C
S31520000CA0704780B58AB000AF07F12003184601F0DF
S31520000CB05DFE624801F01AFD614805F097F861482B
S31520000CC005F094F801214FF0007002F0AFFB0121EE
S31520000CD04FF0806002F0AAFB0121022002F046FBC1
S31520000CE009220921554801F022FF092208215348EB
S31520000CF001F01DFF4FF400733B62022387F8243076
S31520000D00002387F82630002387F82730022387F828
S31520000D10253007F120031946484801F099FD4FF484
S31520000D2080733B62022387F82430002387F826301D
S31520000D30012387F82730022387F8253007F120037F
S31520000D4019463E4801F084FD092206213B4801F060
S31520000D50EEFE09220521394801F0E9FE40233B62D7
S31520000D60022387F82430002387F82630002387F8CB
S31520000D702730022387F8253007F1200319462F480C
S31520000D8001F066FD20233B62022387F824300023EE
S31520000D9087F82630012387F82730022387F8253065
S31520000DA007F120031946254801F052FD0023BB76A2
S31520000DB00023FB7600233B7700237B770023BB773A
S31520000DC00023FB770023BB750023FB7502233B76AC
S31520000DD003237B760723BB8207F1140319461848A1
S31520000DE005F028F80346002B02D1174800F004F935
S31520000DF007F114031946134805F01CF80346002B87
S31520000E0002D1124800F0F8F80023BB730023FB73CD
S31520000E1001233B740023BB800023FB8000233B81FE
S31520000E2000237B810023BB8101237B743B1D184655
S31520000E3005F0D1F800BF2837BD4680BD000402402A
S31520000E4000640040006800402C7A0020447A00208C
S31520000E5080B586B000AF01214FF0005002F0E6FACF
S31520000E6020233B6103233B750023FB7507F1100309
S31520000E701946104801F0ECFC01F010FA3B461846E2
S31520000E8001F04EFA00233B6000237B600023FB60C9
S31520000E903B461946102001F00FFA0121102001F0DF
S31520000EA055FA0021082001F0FFFA00BF1837BD4689
S31520000EB080BD00BF0000024080B483B000AFEFF3D6
S31520000EC014833B603B6823F003037B607B6883F3DA
S31520000ED014880A4B4FF404725A61084A074B5B691F
S31520000EE043F008035361064B4FF000425A6000BF9F
S31520000EF00C37BD465DF8047B704700BF00ED00E06F
S31520000F0030EF00E080B500AF0121082002F08EFA14
S31520000F100121082002F0CAFB00BF80BD80B400AFCB
S31520000F20114A02E0002342F8043B104B9A42F9D3BF
S31520000F3000BFBD465DF8047B704780B500AFFFF764
S31520000F40EDFFFFF7A7FEFFF7ACFEFFF781FFFFF7E8
S31520000F50B3FFFFF7D7FF00BF80BD80B400AF00BF4F
S31520000F60BD465DF8047B704770810020FC0401209B
S31520000F7080B483B000AF0346FB71094997F9073067
S31520000F805B09FA7902F01F02012000FA02F241F809
S31520000F90232000BF0C37BD465DF8047B704700BF99
S31520000FA000E100E080B483B000AF03463960FB71F6
S31520000FB097F90730002B0BDA0D49FB7903F00F0365
S31520000FC0043B3A68D2B21201D2B20B441A7609E037
S31520000FD0084997F907303A68D2B21201D2B20B44C7
S31520000FE083F8002300BF0C37BD465DF8047B7047AD
S31520000FF000ED00E000E100E080B582B000AF78604F
S315200010000EE07B681B780D2B07D07B685A1C7A6014
S315200010101B78184600F05CF902E07B6801337B60A0
S315200010207B681B78002BECD100BF0837BD4680BDFE
S3152000103080B586B000AF786000237B617B695A1C3F
S315200010407A617A6802F00F020F498A5C07F118016B
S315200010500B4403F80C2C7B681B097B607B68002BF8
S31520001060ECD10AE07B69013B7B6107F10C027B69CD
S3152000107013441B78184600F02BF97B69002BF1D11D
S3152000108000BF1837BD4680BD5480002080B59EB075
S3152000109000AF78607B68002B02DA4FF0FF3300E068
S315200010A001233B677B683A6F02FB03F37B600023D7
S315200010B07B67786F431C7B6779681B4B83FB012317
S315200010C09A10CB17D21A13469B0013445B00CA1AF8
S315200010D0164B9A5C07F17803034403F86C2C7B6863
S315200010E0114A82FB03129210DB17D31A7B607B68AE
S315200010F0002BDED13B6F002B0EDA2D2000F0E8F816
S315200011000AE07B6F013B7B6707F10C027B6F134480
S315200011101B78184600F0DCF87B6F002BF1D100BF5E
S315200011207837BD4680BD00BF67666666548000205E
S3152000113080B483B000AF10237B607B6883F3118873
S3152000114000BF0C37BD465DF8047B704780B483B082
S3152000115000AF30237B607B6883F3118800BF0C3798
S31520001160BD465DF8047B704780B584B000AF7860DB
S315200011700B48FFF741FF0B4B1B68002B02D1094B95
S31520001180094A1A60074B1B68FB60064B1A687B6886
S315200011901344044A1360FB6818461037BD4680BDC9
S315200011A05C7A0020F0840020FC04012080B485B005
S315200011B000AF786039603B6803F5F95310337A68DD
S315200011C013607B681B68BB600023FB600AE0FB683A
S315200011D09B001A46BB6813441A4600231360FB681B
S315200011E00133FB60FB68332BF1DDBB686FF0160221
S315200011F01A60BB6804331A4603231360BB68843322
S315200012001A464FF08073136000BF1437BD465DF851
S31520001210047B704780B485B000AF786039607B6806
S315200012201B688033FB60FB683A681A6000BF14377E
S31520001230BD465DF8047B704780B584B000AF1D487D
S3152000124002F010FB3B1D184602F058FC40F24733D3
S31520001250BB803B1D1946174802F0E4FB164B174A84
S315200012601A6002216FF00100FFF79CFE144B154A0D
S315200012701A6000216FF00400FFF794FE124B134A08
S315200012801A6002213220FFF78DFE3220FFF770FE12
S315200012900021084802F07CFC0121064802F045FDA9
S315200012A001220221034803F012FD00BF1037BD467C
S315200012B080BD00BF000C004038C00120ED1D00207D
S315200012C02CC00120E91D002008C101208F15002017
S315200012D080B582B000AF0346FB71FB799BB21946FD
S315200012E0074804F0EEFA00BF8021054804F0D8FC38
S315200012F00346002BF8D000BF0837BD4680BD00BF8F
S315200013000010014080B500AF124802F05DFC034694
S315200013101A46114B1A60114B01221A60104B0022FB
S315200013201A60104B1B68002B06D00E4B1B680E4A0A
S315200013301268002110469847084B00221A60084B75
S315200013401B68002B01D000F0FFF9054B00221A6024
S3152000135000BF80BD000C00409881002094810020B1
S315200013608881002004820020A881002080B500AF5B
S31520001370124802F029FC03461A46114B1A60114BFB
S3152000138001221A60104B00221A60104B5B68002B5A
S3152000139006D00E4B5B680E4A5268012110469847CC
S315200013A0084B00221A60084B1B68002B01D000F066
S315200013B0CBF9054B00221A6000BF80BD000C00400F
S315200013C098810020948100208881002004820020BA
S315200013D0A881002080B485B000AF786039600023F2
S315200013E0FB603B681B68BB6004E0BB68FB60BB68B6
S315200013F01B68BB60BB68002B05D0BB689A687B68FE
S315200014009B689A42F1DD7B68BA681A60FB68002BFC
S3152000141003D13B687A681A6002E0FB687A681A6032
S3152000142000BF1437BD465DF8047B704780B485B095
S3152000143000AF786039600023FB603B681B68BB60A7
S3152000144004E0BB68FB60BB681B68BB60BB68002B05
S3152000145005D0BB685A687B685B689A42F1DD7B6879
S31520001460BA681A60FB68002B03D13B687A681A6059
S3152000147002E0FB687A681A6000BF1437BD465DF843
S31520001480047B704780B584B000AF78607B681B68AA
S31520001490FB60FB68002B04D0FB681A687B681A6027
S315200014A007E00648FFF7A8FD0548FFF7A5FD30BF72
S315200014B0FDE7FB6818461037BD4680BD747A0020CC
S315200014C0807A002080B483B000AF786039603B68B2
S315200014D01A687B681A603B687A681A6000BF0C3706
S315200014E0BD465DF8047B704780B483B000AF78605A
S315200014F039603B681A687B689A603B687A681A602C
S3152000150000BF0C37BD465DF8047B704780B485B0BC
S3152000151000AF78607B681B68FB60FB689A687B6815
S315200015201A60FB6818461437BD465DF8047B704781
S3152000153080B485B000AF786039600023FB603B68DB
S315200015401B68BB6004E0BB68FB60BB681B68BB60B4
S31520001550BB68002B03D0BA687B689A42F3D1BB687C
S31520001560002B0DD0FB68002B04D0BB681A68FB68E3
S315200015701A6003E0BB681A683B681A60012300E022
S31520001580002318461437BD465DF8047B704780B5A6
S3152000159082B000AF0221204803F023FC1E4802F04F
S315200015A013FB03467B6007E01C48FFF76BFF0346EF
S315200015B01B491846FFF70EFF184B1B68002B06D059
S315200015C0164B1B685A687B68D31A002BECDD134B2D
S315200015D01B68002B19D0104802F0F6FA03463B6030
S315200015E00E4B1B685A683B689A4207DA0D48FFF78C
S315200015F003FD0D48FFF700FD30BFFDE7074B1B68D5
S315200016005B681946044802F01CFE00F09DF800BFF6
S315200016100837BD4680BD00BF000C004090810020E9
S315200016208C810020747A00208C7A00200246024B9E
S315200016301A6010DFF74600BFB08100200246054B36
S315200016401A60054A044B5B6843F080535360F746A3
S3152000165000BF00BFB081002000ED00E080B582B061
S3152000166000AF7860094B5B68C3F30803002B03D1F6
S315200016707868FFF7DBFF02E07868FFF7DFFFFFF708
S3152000168065FD00BF0837BD4680BD00BF00ED00E008
S3152000169090B585B000AF234B1C682348FFF7F2FEB8
S315200016A00346E360E368BB60FFF750FDBB68D8687C
S315200016B0BB681969BB685B691A4600F01BF9FFF71E
S315200016C037FD1A49B868FFF7FDFE194B1B689B6862
S315200016D0DB687B60144B1B68002B0AD07B68002BD1
S315200016E0D9D0114B1B689A687B689B68D31A002B4C
S315200016F0D1DD0F48FFF70AFF03460E491846FFF7CC
S31520001700F3FE0B4B1B68FB6003E0FB681B691B6841
S31520001710FB60FB681B69002BF7D1F868FFF79EFF7B
S31520001720B9E700BF748000208C81002068800020EB
S31520001730708000206C80002080B500AF00F004F897
S31520001740FFF704FD30BFFBE780B582B000AF144B36
S315200017501B68DB687B60134B1B68002B1BD0124B6E
S315200017601B68002B17D07B68002B07D00D4B1B68FE
S315200017709A687B689B68D31A002B0CDA0A48FFF715
S31520001780C5FE034606491846FFF7AEFE044B1B6806
S315200017901846FFF763FF00BF0837BD4680BD00BF70
S315200017A0708000208C8100206C80002080B588B05D
S315200017B000AFF860B9607A603B60EFF312833B615B
S315200017C03B691B09012B14BF01230023DBB2FB77E6
S315200017D0FFF7AEFC3C48FFF755FEB861BB697A6857
S315200017E0DA60BB693A681A61BB69BA6A5A61374BD3
S315200017F01B68002B04D1364B1B68DB685B6801E055
S31520001800344B1B68FA681A44BB695A60BB695A682C
S31520001810BB68002B01DDBB6801E06FF000431A4472
S31520001820BB699A602C4802F0CFF903467B61BB69FD
S315200018305A687B69D31A002B19DD2849B869FFF746
S31520001840F5FD264B1B685A687B699A4207DA2448BD
S31520001850FFF7D2FB2348FFF7CFFB30BFFDE71F4B37
S315200018601B685B6819461C4802F0EBFC21E01E4908
S31520001870B869FFF7AFFDFB7F002B1AD01B4B1B6807
S31520001880002B16D0184B1B689A68194B1B68DB680F
S315200018909B68D31A002B0CDA1448FFF737FE034651
S315200018A013491846FFF720FE114B1B681846FFF711
S315200018B0D5FEFB7F002B01D0FFF748FCBB691846FD
S315200018C02037BD4680BD00BF68800020948100205F
S315200018D07480002098810020000C00409081002018
S315200018E0747A00208C7A00208C8100206C80002065
S315200018F07080002080B588B000AFF860B9607A604B
S31520001900EFF312833B613B691B09012B14BF0123B3
S315200019100023DBB2FB76FFF70BFCFB681B68FB6141
S31520001920FB69002B37D003E0FB691B691B68FB6151
S31520001930FB691B69002BF7D1304B1B68FA699A4269
S3152000194002D0FB7E002B07D1FB7E002B01D0FFF7B8
S31520001950FDFB4FF0FF334DE0FB685B68002B03D0A7
S31520001960FB685B6800221A61244B1A68FB685A6080
S31520001970224B1B68FA681A61F869FFF76FFE1F4B46
S315200019801B68DB68002B06D1FB7E002B01D0FFF7FE
S31520001990DDFB00232EE0194B1A68FB681A60FB7EDC
S315200019A0002B05D0FB685B68012B01D0FFF7CEFB2F
S315200019B0BB687968F86898477861FFF7B9FBFB68D8
S315200019C000221A60FB685B68FB61FB69002B0BD069
S315200019D0FB69012B08D0FB6800225A60FB690022B4
S315200019E01A61F869FFF73AFEFB7E002B01D0FFF75C
S315200019F0ADFB7B6918462037BD4680BD748000202C
S31520001A0080B586B000AF7860EFF31283FB60FB6889
S31520001A101B09012B14BF01230023DBB2FB74FFF744
S31520001A2087FB1F497868FFF783FD0346002B06D105
S31520001A301C497868FFF77CFD0346002B04D01A4921
S31520001A407868FFF73FFD21E0184B1B687B611AE0A1
S31520001A50174B1B687A699A4212D07B69DA687B68D1
S31520001A609A420DD17B691A697B68DB689A4207D155
S31520001A707B690022DA600C497868FFF723FD05E0D0
S31520001A807B699B687B617B69002BE1D1FB7C002B0A
S31520001A9001D0FFF75BFB00BF1837BD4680BD00BFF6
S31520001AA0908100208C81002068800020708000209A
S31520001AB07480002080B485B000AF7860EFF3128385
S31520001AC0FB60FB681B09012B04D0074B1B68DB68F6
S31520001AD05B6801E0054B1B687A68136000BF14370A
S31520001AE0BD465DF8047B70477480002098810020F5
S31520001AF080B485B000AF7860EFF31283FB60FB689B
S31520001B001B09012B04D0084B1B68DB685B6801E0CE
S31520001B10064B1B687A6812689B1A18461437BD460E
S31520001B205DF8047B704700BF7480002098810020F8
S31520001B3080B584B000AFEFF312837B607B681B090E
S31520001B40012B14BF01230023DBB2FB73FFF7F0FA4E
S31520001B500C4802F039F80346BB60FB7B002B01D012
S31520001B60FFF7F4FAFB7B002B04D0074B1B68DB68DE
S31520001B705B6801E0054B1B68BA68D31A1846103714
S31520001B80BD4680BD000C0040748000209881002056
S31520001B9080B582B000AF00237B6012E07B685A1CC0
S31520001BA013465B001344DB00444A991843487A687D
S31520001BB013465B001344DB00034419607B68013342
S31520001BC07B607B681C2BE9DD3C4B0022C3F8B822E6
S31520001BD000237B6013E07B685A1C13469B0013444A
S31520001BE09B00374A991836487A6813469B00134457
S31520001BF09B000344083319607B6801337B607B6854
S31520001C00022BE8DD2E4B00225A6400237B602FE056
S31520001C102B497A6813469B0013449B000B440433DC
S31520001C207A681A607A6813469B0013449B00244AFC
S31520001C3098187B685B03234A13441946FFF7B6FAC4
S31520001C407A6813469B0013449B001D4A13441E4981
S31520001C501846FFF7DFFA1A497A6813469B001344A1
S31520001C609B000B44103300221A607B6801337B6093
S31520001C707B68032BCCDD154B4FF0FF325A60134B9C
S31520001C8000229A60114B00221A61104B0022DA6062
S31520001C900F48FFF7B1F90F48FFF7AEF90E48FFF7E7
S31520001CA0ABF90B48FFF7A8F90948FFF7A5F9FFF7A5
S31520001CB0C3FA00BF0837BD4680BD00BF2082002082
S31520001CC0B4810020F8840020911600200C82002088
S31520001CD0B47A0020B87A0020C47A002080B586B075
S31520001CE000AFF860B9601346FB71FB79012B34D83D
S31520001CF0EFF312833B613B691B09012B14BF0123C0
S31520001D000023DBB2FB75FFF713FAFB79002B02D019
S31520001D10012B04D007E0134B134A1A600BE0134B38
S31520001D20134A1A6007E01348FFF766F91248FFF7CF
S31520001D3063F930BFFDE7FB791049FA6841F82320A3
S31520001D40FB790F49BA6841F82320FB6801225A60C3
S31520001D50FB7D002B01D0FFF7F9F900BF1837BD46F0
S31520001D6080BD00BFD4C001200513002090C00120F3
S31520001D706D130020747A0020DC7A0020A8810020D0
S31520001D800482002080B586B002AFF860B9607A6020
S31520001D90FFF7CEF9FFF7FCFEBB68002B16D00F48E5
S31520001DA001F012FF03461A460D4B1A600D4B012215
S31520001DB01A607B680093BB68FA6800210020FFF751
S31520001DC0F5FC084B00221A60FFF7BEFCFFF7B4FCB7
S31520001DD0002318461037BD4680BD00BF000C0040CA
S31520001DE09881002094810020314900E03149EFF3A9
S31520001DF0088020ED108A7246EFF3118320E9FC0F4C
S31520001E002D4FD7F80080C8F800001EE00846FFF7DF
S31520001E10F3F82A48FFF7F0F82948FFF7EDF8D8F845
S31520001E200400FFF733F92748FFF7E6F8D8F8000053
S31520001E30FFF7FEF82448FFF7DFF8D8F8000000681F
S31520001E40FFF7F6F81D48FFF7D7F8DFF88080D8F8B7
S31520001E500080C7F8008018E01D48FFF7CDF8D8F8B5
S31520001E600400FFF713F91B48FFF7C6F8D8F800005F
S31520001E70FFF7DEF81448FFF7BFF8D8F8000000682F
S31520001E80FFF7D6F80D48FFF7B7F8134A536843F023
S31520001E900063536000BFD8F80000B0E8FC0F83F35E
S31520001EA011889646B0EC108A80F3088870470000A7
S31520001EB0788000208980002074800020F98000200E
S31520001EC0AA800020C2800020CA800020B081002085
S31520001ED0D3800020E880002000ED00E080B483B0AD
S31520001EE000AF0346FB71094997F907305B09FA7978
S31520001EF002F01F02012000FA02F241F8232000BF5F
S31520001F000C37BD465DF8047B704700BF00E100E05A
S31520001F1080B483B000AF03463960FB7197F9073070
S31520001F20002B0BDA0D49FB7903F00F03043B3A68CB
S31520001F30D2B21201D2B20B441A7609E0084997F9B7
S31520001F4007303A68D2B21201D2B20B4483F800238A
S31520001F5000BF0C37BD465DF8047B704700ED00E0FE
S31520001F6000E100E080B582B000AF786039607B6820
S31520001F7000229A617B689A697B685A617B685A69F4
S31520001F807B68DA6102211420FFF7C2FF1420FFF7D5
S31520001F90A5FF01220221034804F0F7FC00BF083701
S31520001FA0BD4680BD00640040B0B58AB002AF7860FF
S31520001FB039607B689B685A49184604F004FD03463D
S31520001FC0012B02D05748FFF717F87B68DB69072BF0
S31520001FD000F39F807B689B6807F108020021184662
S31520001FE004F0D9FA7B685A69BB681B09DBB203F097
S31520001FF07F03D8B2796813469B0013445B001344D1
S315200020000B44203302461A707B685A69BB68DBB2E0
S3152000201003F00F03D8B2796813469B0013445B0084
S3152000202013440B44213302461A707B685A69BB7CE1
S3152000203003F00F03D8B2796813469B0013445B0064
S3152000204013440B44223302461A700023FB7716E012
S315200020507B685A69F97FFB7F07F12000034413F858
S315200020600D4C786813469B0013445B0013440344CD
S315200020700B44233322461A70FB7F0133FB777B68A0
S315200020805A69796813469B0013445B0013440B443A
S3152000209022331B78FA7F9A42DAD37B68DB68002BDF
S315200020A025D07B68DC687B681D697B685A697968FE
S315200020B013469B0013445B0013440B4420331B78C8
S315200020C019017B685A69786813469B0013445B00A4
S315200020D01344034421331B780B4400932B4622469A
S315200020E000210020FFF762FB0F4B01221A607B685C
S315200020F05B6901335A4203F0070302F0070258BF17
S3152000210053427A6853617B68DB695A1C7B68DA61C3
S3152000211002E00648FEF770FF00BF2037BD46B0BD7F
S3152000212003000012FC7A002088810020247B0020F6
S3152000213090B484B000AF786039607B68DB69002B8F
S3152000214055DD7B689A69796813469B0013445B00CA
S3152000215013440B4420331A783B681A707B689A69BB
S31520002160796813469B0013445B0013440B442133C8
S315200021701A783B685A707B689A69796813469B007F
S3152000218013445B0013440B4422331A783B689A703D
S315200021900023FB7313E0F97B7B689A69F87B7C68E4
S315200021A013469B0013445B00134423440344233308
S315200021B01A783B680B44DA70FB7B0133FB733B6870
S315200021C09B78FA7B9A42E6D37B689B6901335A4215
S315200021D003F0070302F0070258BF53427A6893615F
S315200021E07B68DB695A1E7B68DA61002300E00123E5
S315200021F018461037BD4690BC704780B58AB000AFF0
S31520002200786039607B689B683B620023FB773B687C
S315200022101B781B013A6852781344BB6000237B74F9
S3152000222000233B743B689B78082B02D93B68082225
S315200022309A703B689B78BB74002387F8273010E0A0
S3152000224097F8273097F8272039680A44D27807F17B
S3152000225028010B4403F8152C97F82730013387F80B
S3152000226027303B689B7897F827209A42E8D307F1D6
S3152000227008031946386A04F02DF80346FB77FB7FDE
S31520002280042B04D10448FEF7B7FE012300E0002307
S3152000229018462837BD4680BD447B002080B500AF58
S315200022A001214FF0005001F061F900214FF000505C
S315200022B001F05CF900BF80BD80B485B000AF7860C6
S315200022C039600023FB600023BB60144B1B68FB6056
S315200022D040F6FE727B6802FA03F3DB43FA6813408A
S315200022E0FB603B681A683B685B681A433B689B68DF
S315200022F01A433B68DB681343BB60BA687B6802FA03
S3152000230003F3FA681343FB60044AFB68136000BFBB
S315200023101437BD465DF8047B704700BF007400404B
S3152000232080B483B000AF78607B6800221A607B6837
S3152000233000225A607B6800229A607B680022DA605D
S3152000234000BF0C37BD465DF8047B704780B483B070
S3152000235000AF78600B46FB70FB78002B09D00D4947
S315200023600C4B1A6801207B6800FA03F313430B60B9
S3152000237009E00849074B1A6801207B6800FA03F335
S31520002380DB4313400B6000BF0C37BD465DF8047B72
S31520002390704700BF0074004080B483B000AF7860FF
S315200023A00B46FB70FB78002B0AD00E490D4B5A6862
S315200023B07B681B09012000FA03F313434B600AE0F4
S315200023C00849084B5A687B681B09012000FA03F369
S315200023D0DB4313404B6000BF0C37BD465DF8047BE2
S315200023E0704700BF0074004080B483B000AF03463E
S315200023F0FB71FB79002B06D0094A094B5B6843F039
S315200024000303536005E0064A054B5B6823F003038C
S31520002410536000BF0C37BD465DF8047B704700BF94
S315200024200074004080B485B000AFF860B9601346F0
S31520002430FB71FB79002B09D00C480C4B1A68B96844
S31520002440FB6801FA03F31343036009E00748074BCF
S315200024501A68B968FB6801FA03F3DB43134003608B
S3152000246000BF1437BD465DF8047B704700740040FA
S3152000247080B485B000AF78600B467B800023FB607C
S31520002480084BFB60FA687B6813440833FB60FB68E3
S315200024901A467B88136000BF1437BD465DF8047B5F
S315200024A0704700BF0074004080B485B000AF7860EC
S315200024B00B467B800023FB60084BFB60FA687B6839
S315200024C013441433FB60FB681A467B88136000BFF5
S315200024D01437BD465DF8047B704700BF007400408A
S315200024E080B485B000AF78600B467B8013463B8076
S315200024F00023FB600023BB607B68082B05D17B880B
S315200025001A023B881343FB6004E07B881A043B884D
S315200025101343FB60074BBB607A68BB6813442033C8
S31520002520BB60BB68FA681A6000BF1437BD465DF809
S31520002530047B70470074004080B485B000AF78609B
S315200025400023FB60084BFB607B689A08FB681344FA
S315200025502C33FB60FB681B689BB218461437BD46BC
S315200025605DF8047B704700BF0074004080B483B0E0
S3152000257000AF78600B46FB70FB78002B0AD00E4923
S315200025800D4B1A684FF480507B6800FA03F313430F
S315200025900B600AE00849084B1A684FF480507B68A4
S315200025A000FA03F3DB4313400B6000BF0C37BD4634
S315200025B05DF8047B704700BF0074004080B485B08E
S315200025C000AFF860B9601346FB71FB79002B09D088
S315200025D00C480C4B1A68B968FB6801FA03F31343DD
S315200025E0036009E00748074B1A68B968FB6801FAD7
S315200025F003F3DB431340036000BF1437BD465DF889
S31520002600047B70470074004080B485B000AF7860CA
S3152000261039600023FB730A4B5A6B39687B6801FAD1
S3152000262003F31340002B02D00123FB7301E00023A8
S31520002630FB73FB7B18461437BD465DF8047B704759
S315200026400074004080B483B000AF786039600649DA
S315200026503A687B6802FA03F34B6300BF0C37BD462A
S315200026605DF8047B704700BF0074004080B485B0DD
S3152000267000AF786039600023FB730023BB60104BEA
S315200026801A6839687B6801FA03F31340BB600C4B68
S315200026905A6B39687B6801FA03F31340002B05D087
S315200026A0BB68002B02D00123FB7301E00023FB73E0
S315200026B0FB7B18461437BD465DF8047B704700BF88
S315200026C00074004080B483B000AF7860396006495A
S315200026D03A687B6802FA03F34B6300BF0C37BD46AA
S315200026E05DF8047B704700BF0074004080B582B05F
S315200026F000AF78607B684B4A934208D101210120C4
S3152000270000F0D4FE0021012000F0D0FE86E07B6898
S31520002710454A934208D10121022000F0C7FE00213C
S31520002720022000F0C3FE79E07B68404A934208D13C
S315200027300121042000F0BAFE0021042000F0B6FE9C
S315200027406CE07B683A4A934208D10121082000F0C8
S31520002750ADFE0021082000F0A9FE5FE07B68354A27
S31520002760934208D10121102000F0A0FE0021102064
S3152000277000F09CFE52E07B682F4A934208D101214B
S31520002780202000F093FE0021202000F08FFE45E05F
S315200027907B682A4A934208D10121402000F086FE18
S315200027A00021402000F082FE38E07B68244A9342D4
S315200027B008D10121802000F079FE0021802000F040
S315200027C075FE2BE07B681F4A93420AD101214FF404
S315200027D0807000F06BFE00214FF4807000F066FEE2
S315200027E01CE07B68184A93420AD101214FF40070FD
S315200027F000F05CFE00214FF4007000F057FE0DE063
S315200028007B68124A934209D101214FF4806000F07F
S315200028104DFE00214FF4806000F048FE00BF0837CF
S31520002820BD4680BD00000240000402400008024070
S31520002830000C024000100240001402400018024022
S31520002840001C0240002002400024024000280240D2
S3152000285080B487B000AF7860396000237B610023A5
S315200028603B610023FB6000237B6176E001227B69CC
S3152000287002FA03F33B613B681A683B691340FB602D
S31520002880FA683B699A4265D17B681A687B695B0066
S31520002890032101FA03F3DB431A407B681A607B6845
S315200028A01A683B681B7919467B695B0001FA03F3BA
S315200028B01A437B681A603B681B79012B03D03B685F
S315200028C01B79022B2ED17B689A687B695B000321DA
S315200028D001FA03F3DB431A407B689A607B689A68A7
S315200028E03B685B7919467B695B0001FA03F31A435F
S315200028F07B689A607B685A687B699BB2194601237C
S315200029008B40DB431A407B685A607B685B683A6879
S31520002910927911467A6992B201FA02F292B21A4378
S315200029207B685A607B68DA687B699BB25B0003210F
S3152000293001FA03F3DB431A407B68DA607B68DA68C6
S315200029403B68DB7919467B695B0001FA03F31A437E
S315200029507B68DA607B6901337B617B690F2B85D9C4
S3152000296000BF1C37BD465DF8047B704780B483B03A
S3152000297000AF78607B684FF6FF721A607B68002292
S315200029801A717B6800225A717B6800229A717B68D3
S315200029900022DA7100BF0C37BD465DF8047B704714
S315200029A080B485B000AF78600B467B804FF48033CF
S315200029B0FB607A88FB681343FB60FA687B68DA6100
S315200029C07A887B68DA61FA687B68DA617B68DB691A
S315200029D0FB607B68DB69FB6000BF1437BD465DF892
S315200029E0047B704780B485B000AF78600B467B804F
S315200029F00023FB737B681A697B881340002B02D067
S31520002A000123FB7301E00023FB73FB7B184614377D
S31520002A10BD465DF8047B704780B483B000AF786014
S31520002A207B681B699BB218460C37BD465DF8047B54
S31520002A30704780B485B000AF78600B467B8000235A
S31520002A40FB737B685A697B881340002B02D00123D5
S31520002A50FB7301E00023FB73FB7B18461437BD464E
S31520002A605DF8047B704780B483B000AF78607B68E4
S31520002A705B699BB218460C37BD465DF8047B7047F0
S31520002A8080B483B000AF78600B467B807B687A8801
S31520002A901A8300BF0C37BD465DF8047B704780B4AF
S31520002AA083B000AF78600B467B807B687A885A8338
S31520002AB000BF0C37BD465DF8047B704780B483B0F9
S31520002AC000AF78600B467B8013467B707B78002BAB
S31520002AD003D07B687A881A8302E07B687A885A83D7
S31520002AE000BF0C37BD465DF8047B704780B483B0C9
S31520002AF000AF78600B467B807A887B685A6100BF7E
S31520002B000C37BD465DF8047B704780B483B000AFB8
S31520002B1078600B467B807B685A697B885A407B6845
S31520002B205A6100BF0C37BD465DF8047B704780B400
S31520002B3085B000AF78600B467B8013467B70002300
S31520002B40FB600023BB607A787B8803F007039B0039
S31520002B5002FA03F3FB607B88DB089BB218467B886E
S31520002B60DB089BB21A467B68083253F822207B8802
S31520002B7003F007039B000F2101FA03F3DB4302EA6C
S31520002B8003017B6800F1080243F822107B88DB08EA
S31520002B909BB21A467B68083253F82220FB681343FF
S31520002BA0BB607B88DB089BB21A467B680832B96813
S31520002BB043F8221000BF1437BD465DF8047B7047EA
S31520002BC080B400AF164A164B1B6843F0010313600E
S31520002BD0134B00229A60124A114B1B6823F0A8530C
S31520002BE023F4102313600E4B0E4A5A600C4B0E4AE8
S31520002BF0C3F884200A4B0D4AC3F88820084A084B9C
S31520002C001B6823F480231360054B0022DA60044BF3
S31520002C100022C3F88C2000BFBD465DF8047B7047B8
S31520002C2000380240103000240030002000300024FC
S31520002C3080B483B000AF0346FB71064B00221A70A6
S31520002C40044AFB79137000BF0C37BD465DF8047B40
S31520002C50704700BF0238024080B582B000AF002323
S31520002C603B600023FB710023BB71312000F084FD03
S31520002C700346BB713B6801333B603B68B3F5A04F0D
S31520002C8002D0BB79002BF0D0312000F075FD034631
S31520002C90002B02D00123FB7101E00023FB71FB799D
S31520002CA018460837BD4680BD80B485B000AF0346C0
S31520002CB0FB710023FB600A4B1B68FB60FB6823F05B
S31520002CC0F803FB60FB79DB00FA681343FB60044AD8
S31520002CD0FB68136000BF1437BD465DF8047B704760
S31520002CE00038024080B483B000AF0346FB71044A2B
S31520002CF0FB79136000BF0C37BD465DF8047B704737
S31520002D000000474280B483B000AF0346FB710D4BF1
S31520002D1000221A700B4B00221A70FB79012B02D06D
S31520002D20042B04D007E0074B01221A7003E0054B61
S31520002D3005221A7000BF00BF0C37BD465DF8047B24
S31520002D40704700BF7038024080B483B000AF03469E
S31520002D50FB71044AFB79136000BF0C37BD465DF852
S31520002D60047B7047800E474280B485B000AFF86080
S31520002D70B9607A603B600B497B689A01BB681A434D
S31520002D803B685B08013B1B041A43FB681A43BB697B
S31520002D901B0613434B6000BF1437BD465DF8047B0A
S31520002DA0704700BF0038024080B483B000AF0346AE
S31520002DB0FB71044AFB79136000BF0C37BD465DF8F2
S31520002DC0047B70476000474280B483B000AF7860D0
S31520002DD0396007497B689A013B681B071343C1F892
S31520002DE0843000BF0C37BD465DF8047B704700BFBA
S31520002DF00038024080B483B000AF0346FB71044A1A
S31520002E00FB79136000BF0C37BD465DF8047B704725
S31520002E106800474280B485B000AFF860B9607A6038
S31520002E200849FB689A01BB681B061A437B681B0787
S31520002E301343C1F8883000BF1437BD465DF8047BC4
S31520002E40704700BF0038024080B483B000AF03460D
S31520002E50FB71044AFB79136000BF0C37BD465DF851
S31520002E60047B70477000474280B483B000AF0346AE
S31520002E70FB71044AFB79136000BF0C37BD465DF831
S31520002E80047B70474C00474280B485B000AF786021
S31520002E9039600023FB600B4B9B68FB60FB6823F0CB
S31520002EA0EC63FB607A683B681343FA681343FB6064
S31520002EB0044AFB68936000BF1437BD465DF8047B67
S31520002EC0704700BF0038024080B485B000AF7860FC
S31520002ED039600023FB600B4B9B68FB60FB6823F08B
S31520002EE07843FB607A683B681343FA681343FB60B8
S31520002EF0044AFB68936000BF1437BD465DF8047B27
S31520002F00704700BF0038024080B485B000AF7860BB
S31520002F100023FB60094B9B68FB60FB6823F00303DF
S31520002F20FB60FA687B681343FB60044AFB68936086
S31520002F3000BF1437BD465DF8047B70470038024059
S31520002F4080B400AF054B9B68DBB203F00C03DBB209
S31520002F501846BD465DF8047B704700BF0038024026
S31520002F6080B485B000AF78600023FB60094B9B6876
S31520002F70FB60FB6823F0F003FB60FA687B68134371
S31520002F80FB60044AFB68936000BF1437BD465DF8BA
S31520002F90047B70470038024080B485B000AF78606B
S31520002FA00023FB60094B9B68FB60FB6823F4E0531E
S31520002FB0FB60FA687B681343FB60044AFB689360F6
S31520002FC000BF1437BD465DF8047B704700380240C9
S31520002FD080B485B000AF78600023FB600A4B9B6805
S31520002FE0FB60FB6823F46043FB607B68DB00FA68C8
S31520002FF01343FB60044AFB68936000BF1437BD4649
S315200030005DF8047B704700BF0038024080B489B069
S3152000301000AF78600023BB6100237B610023FB6146
S3152000302002233B610023FB600223BB60474B9B6866
S3152000303003F00C03BB61BB69042B07D0082B09D016
S31520003040002B3DD17B68424A1A603DE07B68414AAD
S315200030501A6039E03D4B5B689B0D03F00103FB6072
S315200030603A4B5B6803F03F03BB60FB68002B0CD038
S31520003070384ABB68B2FBF3F3344A52689209C2F36A
S31520003080080202FB03F3FB610BE0314ABB68B2FB8B
S31520003090F3F32E4A52689209C2F3080202FB03F3A5
S315200030A0FB612A4B5B681B0C03F0030301335B00B7
S315200030B03B61FA693B69B2FBF3F27B681A6003E075
S315200030C07B68234A1A6000BF204B9B6803F0F003FD
S315200030D0BB61BB691B09BB611F4ABB6913441B78D3
S315200030E0DBB27B617B681A687B69DA407B685A6051
S315200030F0164B9B6803F4E053BB61BB699B0ABB611B
S31520003100154ABB6913441B78DBB27B617B685A681E
S315200031107B69DA407B689A600C4B9B6803F46043BA
S31520003120BB61BB695B0BBB610B4ABB6913441B7854
S31520003130DBB27B617B685A687B69DA407B68DA6040
S3152000314000BF2437BD465DF8047B70470038024037
S315200031500024F40000127A00FC80002080B485B0A0
S3152000316000AF78600023FB607B6803F44073B3F5FF
S31520003170407F11D10F4B9B68FB60FB6823F4F8134B
S31520003180FB607B6823F0704323F44073FA68134393
S31520003190FB60084AFB6893600649064B1A6F7B68FA
S315200031A0C3F30B0313430B6700BF1437BD465DF80B
S315200031B0047B70470038024080B483B000AF0346DA
S315200031C0FB71044AFB79136000BF0C37BD465DF8DE
S315200031D0047B70473C0E474280B483B000AF034661
S315200031E0FB71044AFB79136000BF0C37BD465DF8BE
S315200031F0047B7047400E474280B483B000AF7860AE
S31520003200044A7B68136000BF0C37BD465DF8047B1B
S31520003210704700BF5C01474280B485B000AF78603C
S315200032200023FB600B4BD3F88C30FB60FB6823F04C
S315200032301F03FB607B68013BFA681343FB60054A6A
S31520003240FB68C2F88C3000BF1437BD465DF8047B9E
S31520003250704700BF0038024080B485B000AF786068
S315200032600023FB600B4BD3F88C30FB60FB6823F408
S31520003270F853FB607B68013B1B02FA681343FB6033
S31520003280044AFB68C2F88C3000BF1437BD465DF88F
S31520003290047B70470038024080B485B000AF786068
S315200032A00023FB600A4BD3F88C30FB60FB6823F4C9
S315200032B04013FB60FA687B681343FB60044AFB6893
S315200032C0C2F88C3000BF1437BD465DF8047B7047CA
S315200032D00038024080B485B000AF78600023FB60E0
S315200032E00A4BD3F88C30FB60FB6823F44003FB6069
S315200032F0FA687B681343FB60044AFB68C2F88C308B
S3152000330000BF1437BD465DF8047B70470038024085
S3152000331080B485B000AF78600023FB600A4BD3F8F9
S315200033208C30FB60FB6823F44033FB60FA687B68D3
S315200033301343FB60044AFB68C2F88C3000BF143785
S31520003340BD465DF8047B70470038024080B483B0E8
S3152000335000AF7860044A7B68136000BF0C37BD4617
S315200033605DF8047B704700BFE011474280B483B00C
S3152000337000AF78600B46FB70FB78002B06D00A491D
S31520003380094B1A6B7B6813430B6306E00649064B11
S315200033901A6B7B68DB4313400B6300BF0C37BD46BB
S315200033A05DF8047B704700BF0038024080B483B0CC
S315200033B000AF78600B46FB70FB78002B06D00A49DD
S315200033C0094B5A6B7B6813434B6306E00649064B51
S315200033D05A6B7B68DB4313404B6300BF0C37BD46FB
S315200033E05DF8047B704700BF0038024080B483B08C
S315200033F000AF78600B46FB70FB78002B06D00A499D
S31520003400094B9A6B7B6813438B6306E00649064B90
S315200034109A6B7B68DB4313408B6300BF0C37BD463A
S315200034205DF8047B704700BF0038024080B483B04B
S3152000343000AF78600B46FB70FB78002B06D00A495C
S31520003440094B1A6C7B6813430B6406E00649064B4E
S315200034501A6C7B68DB4313400B6400BF0C37BD46F8
S315200034605DF8047B704700BF0038024080B483B00B
S3152000347000AF78600B46FB70FB78002B06D00A491C
S31520003480094B5A6C7B6813434B6406E00649064B8E
S315200034905A6C7B68DB4313404B6400BF0C37BD4638
S315200034A05DF8047B704700BF0038024080B483B0CB
S315200034B000AF78600B46FB70FB78002B06D00A49DC
S315200034C0094B1A697B6813430B6106E00649064BD4
S315200034D01A697B68DB4313400B6100BF0C37BD467E
S315200034E05DF8047B704700BF0038024080B483B08B
S315200034F000AF78600B46FB70FB78002B06D00A499C
S31520003500094B5A697B6813434B6106E00649064B13
S315200035105A697B68DB4313404B6100BF0C37BD46BD
S315200035205DF8047B704700BF0038024080B483B04A
S3152000353000AF78600B46FB70FB78002B06D00A495B
S31520003540094B9A697B6813438B6106E00649064B53
S315200035509A697B68DB4313408B6100BF0C37BD46FD
S315200035605DF8047B704700BF0038024080B483B00A
S3152000357000AF78600B46FB70FB78002B06D00A491B
S31520003580094B1A6A7B6813430B6206E00649064B11
S315200035901A6A7B68DB4313400B6200BF0C37BD46BB
S315200035A05DF8047B704700BF0038024080B483B0CA
S315200035B000AF78600B46FB70FB78002B06D00A49DB
S315200035C0094B5A6A7B6813434B6206E00649064B51
S315200035D05A6A7B68DB4313404B6200BF0C37BD46FB
S315200035E05DF8047B704700BF0038024080B483B08A
S315200035F000AF78600B46FB70FB78002B06D00A499B
S31520003600094B1A6D7B6813430B6506E00649064B8A
S315200036101A6D7B68DB4313400B6500BF0C37BD4634
S315200036205DF8047B704700BF0038024080B483B049
S3152000363000AF78600B46FB70FB78002B06D00A495A
S31520003640094B5A6D7B6813434B6506E00649064BCA
S315200036505A6D7B68DB4313404B6500BF0C37BD4674
S315200036605DF8047B704700BF0038024080B483B009
S3152000367000AF78600B46FB70FB78002B06D00A491A
S31520003680094B9A6D7B6813438B6506E00649064B0A
S315200036909A6D7B68DB4313408B6500BF0C37BD46B4
S315200036A05DF8047B704700BF0038024080B483B0C9
S315200036B000AF78600B46FB70FB78002B06D00A49DA
S315200036C0094B1A6E7B6813430B6606E00649064BC8
S315200036D01A6E7B68DB4313400B6600BF0C37BD4672
S315200036E05DF8047B704700BF0038024080B483B089
S315200036F000AF78600B46FB70FB78002B06D00A499A
S31520003700094B5A6E7B6813434B6606E00649064B07
S315200037105A6E7B68DB4313404B6600BF0C37BD46B1
S315200037205DF8047B704700BF0038024080B483B048
S3152000373000AF03460A46FB711346BB71BB79002BCB
S3152000374008D00C490B4B1B78DAB2FB791343DBB25A
S315200037500B7009E00749074B1B78DAB2FB79DB438C
S31520003760DBB21340DBB20B7000BF0C37BD465DF8F1
S31520003770047B70470D38024080B487B000AF034603
S31520003780FB710023FB6000237B610023FB74FB7924
S315200037905B09DBB2FB60FB68012B03D1124B1B6874
S315200037A07B6109E0FB68022B03D10F4B1B6F7B610A
S315200037B002E00D4B5B6F7B61FB7903F01F03FB601F
S315200037C07A69FB6822FA03F303F00103002B02D087
S315200037D00123FB7401E00023FB74FB7C18461C3795
S315200037E0BD465DF8047B70470038024080B400AFC8
S315200037F0054A054B5B6F43F08073536700BFBD4698
S315200038005DF8047B704700BF0038024080B485B065
S3152000381000AF0346FB710023FB73094BDA68FB7983
S315200038201340002B02D00123FB7301E00023FB731E
S31520003830FB7B18461437BD465DF8047B704700BFF6
S315200038400038024080B483B000AF0346FB71044ABF
S31520003850FB79137000BF0C37BD465DF8047B7047BB
S315200038600E38024080B582B000AF78607B68604A2F
S31520003870934208D101210120FFF798FE0021012063
S31520003880FFF794FEAFE07B68B3F1804F08D10121AA
S315200038900120FFF76BFE00210120FFF767FEA2E063
S315200038A07B68544A934208D101210220FFF75EFE2D
S315200038B000210220FFF75AFE95E07B684E4A93428C
S315200038C008D101210420FFF751FE00210420FFF733
S315200038D04DFE88E07B68494A934208D101210820A1
S315200038E0FFF744FE00210820FFF740FE7BE07B68BF
S315200038F0434A934208D101211020FFF737FE0021C9
S315200039001020FFF733FE6EE07B683E4A934208D1D3
S3152000391001212020FFF72AFE00212020FFF726FE86
S3152000392061E07B68384A934208D101210220FFF7E3
S315200039303DFE00210220FFF739FE54E07B68334A22
S3152000394093420AD101214FF48030FFF72FFE002148
S315200039504FF48030FFF72AFE45E07B682C4A9342DD
S315200039600AD101214FF40030FFF720FE00214FF449
S315200039700030FFF71BFE36E07B68264A93420AD1C9
S3152000398001214FF48020FFF711FE00214FF4802003
S31520003990FFF70CFE27E07B681F4A934208D10121DE
S315200039A04020FFF7E3FD00214020FFF7DFFD1AE06E
S315200039B07B681A4A934208D101218020FFF7D6FD61
S315200039C000218020FFF7D2FD0DE07B68144A934248
S315200039D009D101214FF48070FFF7C8FD00214FF473
S315200039E08070FFF7C3FD00BF0837BD4680BD00BF0E
S315200039F0000001400004004000080040000C004088
S31520003A000010004000140040000401400040014026
S31520003A10004401400048014000180040001C0040BE
S31520003A200020004080B485B000AF78603960002364
S31520003A30FB817B681B88FB817B68294A934213D0D4
S31520003A407B68284A93420FD07B68B3F1804F0BD016
S31520003A507B68254A934207D07B68244A934203D049
S31520003A607B68234A934208D1FB8923F07003FB81AC
S31520003A703B685A88FB891343FB817B681D4A934226
S31520003A800CD07B681C4A934208D0FB8923F44073F0
S31520003A90FB813B681A89FB891343FB817B68FA8982
S31520003AA01A803B685A687B68DA623B681A887B68AA
S31520003AB01A857B680A4A934203D07B68094A934257
S31520003AC004D13B689B7A9AB27B681A867B6801226E
S31520003AD09A8200BF1437BD465DF8047B704700BF4D
S31520003AE0000001400004014000040040000800409E
S31520003AF0000C0040001000400014004080B483B049
S31520003B0000AF78607B684FF0FF325A607B680022F6
S31520003B101A807B6800221A817B6800225A807B6883
S31520003B2000229A7200BF0C37BD465DF8047B7047B1
S31520003B3080B483B000AF78600B467B8013463B8011
S31520003B407B687A881A857B683A889A8200BF0C3708
S31520003B50BD465DF8047B704780B485B000AF7860C1
S31520003B600B467B800023FB817B681B88FB81FB89BE
S31520003B7023F07003FB81FA897B881343FB817B68E2
S31520003B80FA891A8000BF1437BD465DF8047B70475A
S31520003B9080B483B000AF786039607B683A685A6237
S31520003BA000BF0C37BD465DF8047B704780B483B0F8
S31520003BB000AF786039607B683A68DA6200BF0C37FC
S31520003BC0BD465DF8047B704780B483B000AF786053
S31520003BD07B685B6A18460C37BD465DF8047B7047E8
S31520003BE080B483B000AF78607B681B8D9BB218468B
S31520003BF00C37BD465DF8047B704780B483B000AFB8
S31520003C0078600B46FB70FB78002B08D07B681B88FE
S31520003C109BB243F002039AB27B681A8007E07B6866
S31520003C201B889BB223F002039AB27B681A8000BFDE
S31520003C300C37BD465DF8047B704780B483B000AF77
S31520003C4078600B467B807B88002B08D07B681B889E
S31520003C509BB243F004039AB27B681A8007E07B6824
S31520003C601B889BB223F004039AB27B681A8000BF9C
S31520003C700C37BD465DF8047B704780B483B000AF37
S31520003C8078600B46FB70FB78002B08D07B681B887E
S31520003C909BB243F080039AB27B681A8007E07B6868
S31520003CA01B889BB223F080039AB27B681A8000BFE0
S31520003CB00C37BD465DF8047B704780B483B000AFF7
S31520003CC078600B467B807B681B889BB223F00803B9
S31520003CD09AB27B681A807B681B889AB27B881343CA
S31520003CE09AB27B681A8000BF0C37BD465DF8047B0C
S31520003CF0704780B483B000AF78600B467B807B68CA
S31520003D001B889BB223F440739AB27B681A807B6827
S31520003D101B889AB27B8813439AB27B681A8000BFAD
S31520003D200C37BD465DF8047B704780B483B000AF86
S31520003D3078600B46FB70FB78002B08D07B681B88CD
S31520003D409BB243F001039AB27B681A8007E07B6836
S31520003D501B889BB223F001039AB27B681A8000BFAE
S31520003D600C37BD465DF8047B704780B485B000AF44
S31520003D707860396000237B810023FB810023BB818F
S31520003D807B681B8C9BB223F001039AB27B681A8452
S31520003D907B681B8CFB817B689B88BB817B681B8B2C
S31520003DA07B817B8923F070037B817B8923F003034E
S31520003DB07B813B681A887B8913437B81FB8923F0AF
S31520003DC00203FB813B689A89FB891343FB813B688D
S31520003DD05A88FB891343FB817B681F4A934203D091
S31520003DE07B681E4A934223D1FB8923F00803FB817B
S31520003DF03B68DA89FB891343FB81FB8923F00403A3
S31520003E00FB813B689A88FB891343FB81BB8923F49A
S31520003E108073BB81BB8923F40073BB813B681A8AFC
S31520003E20BB891343BB813B685A8ABB891343BB8139
S31520003E307B68BA899A807B687A891A833B689A68F4
S31520003E407B685A637B68FA891A8400BF1437BD469B
S31520003E505DF8047B704700BF00000140000401406C
S31520003E6080B485B000AF7860396000237B81002361
S31520003E70FB810023BB817B681B8C9BB223F0100344
S31520003E809AB27B681A847B681B8CFB817B689B8833
S31520003E90BB817B681B8B7B817B8923F4E0437B8101
S31520003EA07B8923F440737B813B681B881B029AB273
S31520003EB07B8913437B81FB8923F02003FB813B68AD
S31520003EC09B891B019AB2FB891343FB813B685B8864
S31520003ED01B019AB2FB891343FB817B68224A9342DA
S31520003EE003D07B68214A93422BD1FB8923F08003A0
S31520003EF0FB813B68DB891B019AB2FB891343FB815B
S31520003F00FB8923F04003FB813B689B881B019AB207
S31520003F10FB891343FB81BB8923F48063BB81BB8967
S31520003F2023F40063BB813B681B8A9B009AB2BB8942
S31520003F301343BB813B685B8A9B009AB2BB891343C0
S31520003F40BB817B68BA899A807B687A891A833B68A9
S31520003F509A687B689A637B68FA891A8400BF14374B
S31520003F60BD465DF8047B7047000001400004014017
S31520003F7080B485B000AF7860396000237B81002350
S31520003F80FB810023BB817B681B8C9BB223F480734F
S31520003F909AB27B681A847B681B8CFB817B689B8822
S31520003FA0BB817B689B8B7B817B8923F070037B8124
S31520003FB07B8923F003037B813B681A887B89134323
S31520003FC07B81FB8923F40073FB813B689B891B0261
S31520003FD09AB2FB891343FB813B685B881B029AB22A
S31520003FE0FB891343FB817B68224A934203D07B687B
S31520003FF0214A93422BD1FB8923F40063FB813B6842
S31520004000DB891B029AB2FB891343FB81FB8923F4CC
S315200040108063FB813B689B881B029AB2FB89134312
S31520004020FB81BB8923F48053BB81BB8923F40053D6
S31520004030BB813B681B8A1B019AB2BB891343BB8198
S315200040403B685B8A1B019AB2BB891343BB817B68A1
S31520004050BA899A807B687A899A833B689A687B6852
S31520004060DA637B68FA891A8400BF1437BD465DF887
S31520004070047B7047000001400004014080B485B0F5
S3152000408000AF786039600023BB8100237B81002349
S31520004090FB817B681B8C9BB223F480539AB27B688E
S315200040A01A847B681B8C7B817B689B88FB817B6861
S315200040B09B8BBB81BB8923F4E043BB81BB8923F463
S315200040C04073BB813B681B881B029AB2BB89134392
S315200040D0BB817B8923F400537B813B689B891B032F
S315200040E09AB27B8913437B813B685B881B039AB218
S315200040F07B8913437B817B68124A934203D07B687A
S31520004100114A93420AD1FB8923F48043FB813B6801
S315200041101B8A9B019AB2FB891343FB817B68FA8930
S315200041209A807B68BA899A833B689A687B681A6406
S315200041307B687A891A8400BF1437BD465DF8047BF4
S31520004140704700BF000001400004014080B483B0E6
S3152000415000AF78607B6800221A807B6800225A8034
S315200041607B6800229A807B6800229A607B68002206
S315200041709A817B680022DA817B6800221A827B681A
S3152000418000225A8200BF0C37BD465DF8047B70477B
S3152000419080B485B000AF78600B467B8013463B80A9
S315200041A00023FB6000237B817B68FB60FB68183360
S315200041B0FB607B88012202FA03F37B817B681B8CE0
S315200041C09AB27B89DB439BB213409AB27B681A84EE
S315200041D07B88002B02D07B88082B14D17B885B0838
S315200041E09BB21A46FB681344FB60FA68FB681968A1
S315200041F04FF68F730B401360FB68FA6811683A8894
S315200042000A431A6017E07B88043B9BB25B089BB28B
S315200042101A46FB681344FB60FA68FB68196848F67F
S31520004220FF730B401360FB68FA681268398809022D
S3152000423089B20A431A6000BF1437BD465DF8047B75
S31520004240704780B483B000AF786039607B683A6885
S315200042505A6300BF0C37BD465DF8047B704780B4B7
S3152000426083B000AF786039607B683A689A6300BF94
S315200042700C37BD465DF8047B704780B483B000AF31
S31520004280786039607B683A68DA6300BF0C37BD46D0
S315200042905DF8047B704780B483B000AF78603960E6
S315200042A07B683A681A6400BF0C37BD465DF8047B0C
S315200042B0704780B485B000AF78600B467B800023C2
S315200042C0FB817B681B8BFB81FB8923F07003FB81C1
S315200042D0FA897B881343FB817B68FA891A8300BF9E
S315200042E01437BD465DF8047B704780B485B000AFB7
S315200042F078600B467B800023FB817B681B8BFB81D0
S31520004300FB8923F4E043FB817B881B029AB2FB895D
S315200043101343FB817B68FA891A8300BF1437BD4695
S315200043205DF8047B704780B485B000AF78600B469B
S315200043307B800023FB817B689B8BFB81FB8923F0A1
S315200043407003FB81FA897B881343FB817B68FA899A
S315200043509A8300BF1437BD465DF8047B704780B44E
S3152000436085B000AF78600B467B800023FB817B689D
S315200043709B8BFB81FB8923F4E043FB817B881B021B
S315200043809AB2FB891343FB817B68FA899A8300BF23
S315200043901437BD465DF8047B704780B485B000AF06
S315200043A078600B467B800023FB817B681B8BFB811F
S315200043B0FB8923F00803FB81FA897B881343FB8161
S315200043C07B68FA891A8300BF1437BD465DF8047BE3
S315200043D0704780B485B000AF78600B467B800023A1
S315200043E0FB817B681B8BFB81FB8923F40063FB81AC
S315200043F07B881B029AB2FB891343FB817B68FA896F
S315200044001A8300BF1437BD465DF8047B704780B41D
S3152000441085B000AF78600B467B800023FB817B68EC
S315200044209B8BFB81FB8923F00803FB81FA897B8820
S315200044301343FB817B68FA899A8300BF1437BD46F4
S315200044405DF8047B704780B485B000AF78600B467A
S315200044507B800023FB817B689B8BFB81FB8923F47C
S315200044600063FB817B881B029AB2FB891343FB8185
S315200044707B68FA899A8300BF1437BD465DF8047BB2
S31520004480704780B485B000AF78600B467B800023F0
S31520004490FB817B681B8BFB81FB8923F00403FB815B
S315200044A0FA897B881343FB817B68FA891A8300BFCC
S315200044B01437BD465DF8047B704780B485B000AFE5
S315200044C078600B467B800023FB817B681B8BFB81FE
S315200044D0FB8923F48063FB817B881B029AB2FB89CC
S315200044E01343FB817B68FA891A8300BF1437BD46C4
S315200044F05DF8047B704780B485B000AF78600B46CA
S315200045007B800023FB817B689B8BFB81FB8923F0CF
S315200045100403FB81FA897B881343FB817B68FA8934
S315200045209A8300BF1437BD465DF8047B704780B47C
S3152000453085B000AF78600B467B800023FB817B68CB
S315200045409B8BFB81FB8923F48063FB817B881B0289
S315200045509AB2FB891343FB817B68FA899A8300BF51
S315200045601437BD465DF8047B704780B485B000AF34
S3152000457078600B467B800023FB817B681B8BFB814D
S31520004580FB8923F08003FB81FA897B881343FB8117
S315200045907B68FA891A8300BF1437BD465DF8047B11
S315200045A0704780B485B000AF78600B467B800023CF
S315200045B0FB817B681B8BFB81FB89C3F30E03FB818D
S315200045C07B881B029AB2FB891343FB817B68FA899D
S315200045D01A8300BF1437BD465DF8047B704780B44C
S315200045E085B000AF78600B467B800023FB817B681B
S315200045F09B8BFB81FB8923F08003FB81FA897B88D7
S315200046001343FB817B68FA899A8300BF1437BD4622
S315200046105DF8047B704780B485B000AF78600B46A8
S315200046207B800023FB817B689B8BFB81FB89C3F30B
S315200046300E03FB817B881B029AB2FB891343FB8105
S315200046407B68FA899A8300BF1437BD465DF8047BE0
S31520004650704780B485B000AF78600B467B8000231E
S31520004660FB817B681B8CFB81FB8923F00203FB818A
S31520004670FA897B881343FB817B68FA891A8400BFF9
S315200046801437BD465DF8047B704780B485B000AF13
S3152000469078600B467B800023FB817B681B8CFB812B
S315200046A0FB8923F00803FB81FA897B881343FB816E
S315200046B07B68FA891A8400BF1437BD465DF8047BEF
S315200046C0704780B485B000AF78600B467B800023AE
S315200046D0FB817B681B8CFB81FB8923F02003FB81FC
S315200046E07B881B019AB2FB891343FB817B68FA897D
S315200046F01A8400BF1437BD465DF8047B704780B42A
S3152000470085B000AF78600B467B800023FB817B68F9
S315200047101B8CFB81FB8923F08003FB817B881B019B
S315200047209AB2FB891343FB817B68FA891A8400BFFE
S315200047301437BD465DF8047B704780B485B000AF62
S3152000474078600B467B800023FB817B681B8CFB817A
S31520004750FB8923F40073FB817B881B029AB2FB89B9
S315200047601343FB817B68FA891A8400BF1437BD4640
S315200047705DF8047B704780B485B000AF78600B4647
S315200047807B800023FB817B681B8CFB81FB8923F4C8
S315200047900063FB817B881B029AB2FB891343FB8152
S315200047A07B68FA891A8400BF1437BD465DF8047BFE
S315200047B0704780B485B000AF78600B467B800023BD
S315200047C0FB817B681B8CFB81FB8923F40053FB81D7
S315200047D07B881B039AB2FB891343FB817B68FA898A
S315200047E01A8400BF1437BD465DF8047B704780B439
S315200047F085B000AF78600B467B8013463B80002354
S31520004800FB817B88012202FA03F3FB817B681B8CE8
S315200048109AB2FB89DB439BB213409AB27B681A8417
S315200048207B681B8C9AB239887B8801FA03F39BB28A
S3152000483013439AB27B681A8400BF1437BD465DF8CD
S31520004840047B704780B485B000AF78600B467B80D0
S3152000485013463B800023FB817B88042202FA03F364
S31520004860FB817B681B8C9AB2FB89DB439BB213408E
S315200048709AB27B681A847B681B8C9AB239887B88AB
S3152000488001FA03F39BB213439AB27B681A8400BFE2
S315200048901437BD465DF8047B704780B582B000AF03
S315200048A0786039603B681B88002B0FD13B6859889C
S315200048B03B689A883B681B89786800F0B7FC3B68A0
S315200048C0DB881946786800F0E1F836E03B681B88FB
S315200048D0042B0FD13B6859883B689A883B681B8913
S315200048E0786800F0E6FC3B68DB881946786800F0BB
S315200048F0E9F822E03B681B88082B0FD13B685988D2
S315200049003B689A883B681B89786800F01FFD3B68E6
S31520004910DB881946786800F0F3F80EE03B68598882
S315200049203B689A883B681B89786800F057FD3B688E
S31520004930DB881946786800F0FFF800BF0837BD46C7
S3152000494080BD80B483B000AF78607B6800221A8077
S315200049507B6800225A807B6801229A807B6800222D
S31520004960DA807B6800221A8100BF0C37BD465DF8CD
S31520004970047B704780B584B000AF7860396000232F
S31520004980FB810123BB813B685B88002B02D102237C
S31520004990FB8101E00023FB813B689B88012B02D130
S315200049A00223BB8101E00123BB813B681B88002BCE
S315200049B01CD13B6859883B689A883B681B89786874
S315200049C000F034FC3B68DB881946786800F05EF816
S315200049D03B681B89BA89F989786800F06AFC3B68CC
S315200049E0DB881946786800F06DF81BE03B6859882B
S315200049F03B689A883B681B89786800F05AFC3B68BC
S31520004A00DB881946786800F05DF83B681B89BA890F
S31520004A10F989786800F00AFC3B68DB8819467868D3
S31520004A2000F034F800BF1037BD4680BD80B483B097
S31520004A3000AF78607B685B6B18460C37BD465DF827
S31520004A40047B704780B483B000AF78607B689B6B33
S31520004A5018460C37BD465DF8047B704780B483B09A
S31520004A6000AF78607B68DB6B18460C37BD465DF877
S31520004A70047B704780B483B000AF78607B681B6C82
S31520004A8018460C37BD465DF8047B704780B483B06A
S31520004A9000AF78600B467B807B681B8B9BB223F034
S31520004AA00C039AB27B681A837B681B8B9AB27B882D
S31520004AB013439AB27B681A8300BF0C37BD465DF854
S31520004AC0047B704780B483B000AF78600B467B8050
S31520004AD07B681B8B9BB223F440639AB27B681A8354
S31520004AE07B681B8B9AB27B881B029BB213439AB2BC
S31520004AF07B681A8300BF0C37BD465DF8047B704780
S31520004B0080B483B000AF78600B467B807B689B8B3C
S31520004B109BB223F00C039AB27B689A837B689B8BAB
S31520004B209AB27B8813439AB27B689A8300BF0C376C
S31520004B30BD465DF8047B704780B483B000AF7860D3
S31520004B400B467B807B689B8B9BB223F440639AB297
S31520004B507B689A837B689B8B9AB27B881B029BB26D
S31520004B6013439AB27B689A8300BF0C37BD465DF823
S31520004B70047B704780B483B000AF786039603B68AF
S31520004B801A883B685B8813439AB23B689B88134319
S31520004B909AB23B68DB8813439AB23B681B8913435E
S31520004BA09AB23B685B8913439AB23B689B8913434D
S31520004BB09AB27B68A3F8442000BF0C37BD465DF847
S31520004BC0047B704780B483B000AF78607B68002296
S31520004BD01A807B6800225A807B6800229A807B6834
S31520004BE00022DA807B6800221A817B6800225A81A3
S31520004BF07B6800229A8100BF0C37BD465DF8047B96
S31520004C00704780B483B000AF78600B46FB70FB78AA
S31520004C10002B0CD07B68B3F844309BB26FEA434339
S31520004C206FEA53439AB27B68A3F8442009E07B6875
S31520004C30B3F844309BB2C3F30E039AB27B68A3F851
S31520004C40442000BF0C37BD465DF8047B704780B416
S31520004C5083B000AF78600B46FB70FB78002B08D042
S31520004C607B689B889BB243F004039AB27B689A8048
S31520004C7007E07B689B889BB223F004039AB27B688B
S31520004C809A8000BF0C37BD465DF8047B704780B420
S31520004C9083B000AF78600B46FB70FB78002B08D002
S31520004CA07B689B889BB243F001039AB27B689A800B
S31520004CB007E07B689B889BB223F001039AB27B684E
S31520004CC09A8000BF0C37BD465DF8047B704780B4E0
S31520004CD083B000AF78600B467B8013467B707B7871
S31520004CE0002B08D07B689B899AB27B8813439AB2A3
S31520004CF07B689A8109E07B689B899AB27B88DB4333
S31520004D009BB213409AB27B689A8100BF0C37BD468E
S31520004D105DF8047B704780B483B000AF78600B46A3
S31520004D207B807B687A889A8200BF0C37BD465DF807
S31520004D30047B704780B485B000AF78600B467B80DB
S31520004D400023FB737B681B8A9AB27B8813409BB235
S31520004D50002B02D00123FB7301E00023FB73FB7BB6
S31520004D6018461437BD465DF8047B704780B483B07F
S31520004D7000AF78600B467B807B88DB439AB27B68EA
S31520004D801A8200BF0C37BD465DF8047B704780B49D
S31520004D9085B000AF78600B467B800023FB73002331
S31520004DA0BB8100237B817B681B8A9AB27B88134058
S31520004DB0BB817B689B899AB27B8813407B81BB89A8
S31520004DC0002B05D07B89002B02D00123FB7301E049
S31520004DD00023FB73FB7B18461437BD465DF8047B26
S31520004DE0704780B483B000AF78600B467B807B88A9
S31520004DF0DB439AB27B681A8200BF0C37BD465DF84A
S31520004E00047B704780B483B000AF78600B467B800C
S31520004E1013463B807A883B8813439AB27B68A3F873
S31520004E20482000BF0C37BD465DF8047B704780B430
S31520004E3083B000AF78600B467B8013467B707B780F
S31520004E40002B08D07B689B899AB27B8813439AB241
S31520004E507B689A8109E07B689B899AB27B88DB43D1
S31520004E609BB213409AB27B689A8100BF0C37BD462D
S31520004E705DF8047B704780B483B000AF78600B4642
S31520004E80FB70FB78002B08D07B689B889BB243F095
S31520004E9008039AB27B689A8007E07B689B889BB25E
S31520004EA023F008039AB27B689A8000BF0C37BD4670
S31520004EB05DF8047B704780B483B000AF78607B6870
S31520004EC01B899BB223F007039AB27B681A8100BF25
S31520004ED00C37BD465DF8047B704780B582B000AFC5
S31520004EE078600B467B807B881946786800F088F8C6
S31520004EF07B681B899BB243F007039AB27B681A81B1
S31520004F0000BF0837BD4680BD80B584B000AFF860CD
S31520004F10084611461A4603467B810B463B811346BB
S31520004F20FB807B89602B06D1FB8839890122F868B2
S31520004F3000F0BFF905E0FB8839890122F86800F006
S31520004F4075F97B891946F86800F05AF8FB681B89C1
S31520004F509BB243F007039AB2FB681A8100BF103751
S31520004F60BD4680BD80B586B000AFF86008461146C4
S31520004F701A4603467B810B463B811346FB80002362
S31520004F80FB82FB883A897989F86800F0A9F8FB68E2
S31520004F901B89FB82FB8A23F00703FB82FB8A43F0F3
S31520004FA00703FB82FB8A23F07003FB82FB8A43F014
S31520004FB07003FB82FB68FA8A1A8100BF1837BD4648
S31520004FC080BD80B584B000AFF860084611461A4609
S31520004FD003467B810B463B811346FB80FB883A893F
S31520004FE07989F86800F07CF8FB681B899BB243F44A
S31520004FF080439AB2FB681A8100BF1037BD4680BD38
S3152000500080B485B000AF78600B467B800023FB819F
S315200050107B681B89FB81FB8923F07003FB81FA895E
S315200050207B881343FB817B68FA891A8100BF14377A
S31520005030BD465DF8047B704780B483B000AF7860CE
S315200050400B467B807B689B889BB223F070039AB2C9
S315200050507B689A807B689B889AB27B8813439AB236
S315200050607B689A8000BF0C37BD465DF8047B70478D
S3152000507080B483B000AF78600B467B807B681B8949
S315200050809BB223F007039AB27B681A817B681B893F
S315200050909AB27B8813439AB27B681A8100BF0C3779
S315200050A0BD465DF8047B704780B483B000AF78605E
S315200050B00B467B807B681B899BB223F080039AB2C8
S315200050C07B681A817B681B899AB27B8813439AB2C4
S315200050D07B681A8100BF0C37BD465DF8047B70479C
S315200050E080B487B000AFF860084611461A460346DA
S315200050F07B810B463B811346FB800023FB82FB68AA
S315200051001B89FB82FB8ADBB2FB82FB881B029AB2DD
S315200051103B8913439AB27B8913439AB2FB8A134382
S31520005120FB82FB68FA8A1A8100BF1C37BD465DF8F0
S31520005130047B704780B487B000AFF86008461146FC
S315200051401A4603467B810B463B811346FB80002390
S31520005150FB820023BB8200237B82FB681B89FB82A8
S31520005160FB681B8BBB82FB681B8C7B82FB8A23F034
S315200051700703FB82FA8A7B891343FB82BB8A23F4CB
S31520005180407323F00303BB82BB8A43F4807343F04E
S315200051900103BB827B8A23F022037B82FB881B01CF
S315200051A09AB23B8913439AB27B8A13437B82FB686C
S315200051B0FA8A1A81FB68BA8A1A83FB687A8A1A8461
S315200051C000BF1C37BD465DF8047B704780B483B0B2
S315200051D000AF78600B46FB70FB78002B08D07B680D
S315200051E09B889BB243F080039AB27B689A8007E043
S315200051F07B689B889BB223F080039AB27B689A8057
S3152000520000BF0C37BD465DF8047B704780B483B081
S3152000521000AF78600B467B807B687A88A3F85020A5
S3152000522000BF0C37BD465DF8047B704780B487B05D
S3152000523000AFF860084611461A4603467B810B46A6
S315200052403B811346FB800023FB820023BB82FB6845
S315200052501B8C9BB223F001039AB2FB681A84FB686D
S315200052601B8BFB82FB681B8CBB82FB8A23F0F30320
S31520005270FB82FB881B019AB23B8913439AB2FB8AB5
S315200052801343FB82BB8A23F00A03BB827A89BB8A3B
S3152000529013439BB243F00103BB82FB68FA8A1A834D
S315200052A0FB68BA8A1A8400BF1C37BD465DF8047BAA
S315200052B0704780B487B000AFF860084611461A469A
S315200052C003467B810B463B811346FB800023FB82F2
S315200052D00023BB8200237B82FB681B8C9BB223F0BE
S315200052E010039AB2FB681A84FB681B8BFB82FB684F
S315200052F01B8CBB827B891B017B82FB8A23F4407338
S315200053001B051B0DFB82FB881B039AB2FB8A1343EA
S31520005310FB823B891B029AB2FB8A1343FB82BB8A20
S3152000532023F0A003BB827A8ABB8A13439BB243F045
S315200053301003BB82FB68FA8A1A83FB68BA8A1A842E
S3152000534000BF1C37BD465DF8047B704780B487B02C
S3152000535000AFF860084611461A4603467B810B4685
S315200053603B811346FB800023FB820023BB82002364
S315200053707B82FB681B8C9BB223F480739AB2FB68FA
S315200053801A84FB689B8BFB82FB681B8CBB827B8908
S315200053901B027B82FB8A23F0F303FB82FB881B0123
S315200053A09AB23B8913439AB2FB8A1343FB82BB8A88
S315200053B023F42063BB827A8ABB8A13439BB243F4CD
S315200053C08073BB82FB68FA8A9A83FB68BA8A1A843E
S315200053D000BF1C37BD465DF8047B704780B487B09C
S315200053E000AFF860084611461A4603467B810B46F5
S315200053F03B811346FB800023FB820023BB820023D4
S315200054007B82FB681B8C9BB223F480539AB2FB6889
S315200054101A84FB689B8BFB82FB681B8CBB827B8977
S315200054201B037B82FB8A23F440731B051B0DFB8227
S315200054303B891B029AB2FB8A1343FB82FB881B0320
S315200054409AB2FB8A1343FB82BB8A23F400535B0484
S315200054505B0CBB827A8ABB8A13439BB243F480538C
S31520005460BB82FB68FA8A9A83FB68BA8A1A8400BFD1
S315200054701C37BD465DF8047B704700BF80B582B0FF
S3152000548000AF78607B683B4A934208D10121102007
S31520005490FEF78CF800211020FEF788F865E07B687F
S315200054A0354A93420AD101214FF40030FEF75EF8C7
S315200054B000214FF40030FEF759F856E07B682F4A5A
S315200054C093420AD101214FF48020FEF74FF80021A4
S315200054D04FF48020FEF74AF847E07B68284A93423B
S315200054E00AD101214FF40020FEF740F800214FF4A5
S315200054F00020FEF73BF838E07B68224A93420AD127
